:020000040800F2
:10000000B0080020F51E0008CD1E0008CF1E000815
:10001000D11E0008D31E0008D51E000800000000F5
:10002000000000000000000000000000D71E0008D3
:10003000D91E000800000000DB1E0008DD1E0008BD
:100040001D1F0008211F0008251F0008291F000888
:100050002D1F0008311F0008351F0008391F000838
:100060003D1F0008411F0008451F0008491F0008E8
:100070004D1F0008511F0008551F0008591F000898
:100080005D1F0008611F0008651F0008691F000848
:100090006D1F0008711F0008751F0008791F0008F8
:1000A0007D1F0008811F0008851F0008891F0008A8
:1000B0008D1F0008911F0008951F0008991F000858
:1000C0009D1F0008A11F0008A51F0008A91F000808
:1000D000AD1F0008B11F0008B51F0008B91F0008B8
:1000E000BD1F0008C11F0008C51F0008C91F000868
:1000F000CD1F0008D11F0008D51F0008D91F000818
:10010000DD1F0008E11F0008E51F0008E91F0008C7
:10011000ED1F0008F11F0008F51F0008F91F000877
:10012000FD1F000801200008052000080920000824
:100130000D200008112000081520000819200008D3
:100140001D20000821200008252000082920000883
:100150002D20000831200008352000083920000833
:100160003D200008412000084520000849200008E3
:100170004D20000851200008552000085920000893
:100180005D20000861200008652000086920000843
:100190006D200008712000087520000879200008F3
:1001A0007D200008812000088520000889200008A3
:1001B0008D20000891200008952000089920000853
:1001C0009D200008A12000087CB50400012600F055
:1001D000FBFB0500002C01D101205AE0206A4028D9
:1001E00094F84000012801D1022052E0012084F857
:1001F000400094F8410000280AD1002084F8400013
:10020000200000F0E0FB41F28831200000F0B4FA59
:100210002068006830F4F850A168491E50EA0120B7
:1002200021680860A06C00902B0000222021200093
:1002300000F0A4FA0100C9B2002926D121680A6899
:1002400014490A40616852EA0162E1680A43E169BF
:100250000A43216A0A4321680A6021684A680E49F4
:100260000A40216952EA014261690A43A1690A43CD
:1002700021684A602168096851F001012268116013
:1002800000216164012184F84110002184F84010AC
:10029000C0B276BD2FFFFF00FEF8E0FF10B50400EE
:1002A000002C01D101201AE094F84000012801D16E
:1002B000022014E0012084F8400020680068400813
:1002C000400021680860200000F084FB002060648A
:1002D000002084F84100002084F84000002010BD78
:1002E0002DE9F84304000D0016005FF0010800F04E
:1002F0006BFB0700A8690028E8690028286A002825
:1003000094F84000012801D102203DE0012084F84A
:10031000400094F8410001282FD1002060640220A1
:1003200084F8410000963B0000222021200000F0CC
:1003300025FA81464846C0B2002820D10022290073
:10034000200000F044FA686A002812D100963B00B1
:1003500001220221200000F011FA81464846C0B275
:1003600000280CD102202168C860012084F84100D7
:1003700005E0012084F8410001E05FF0020900205F
:1003800084F840004846C0B2BDE8F2832DE9F84346
:1003900005000C001600002700F016FB80462868B8
:1003A00010F1200995F84000012801D102205EE0FB
:1003B000012085F8400095F84100012850D1002027
:1003C0006864002C45D0122085F841002868006937
:1003D000401CE86228680069401CA8626C622868BA
:1003E000406930F0406029684861E86A002815D00B
:1003F0000096434601220421280000F0BFF90700BF
:100400003800C0B2002809D1686A411C69620078CE
:1004100089F80000E86A401EE862E6E73800C0B2EA
:10042000002812D10096434601220221280000F044
:10043000A5F907003800C0B2002806D102202968BB
:10044000C860280000F04CF90700012085F8410041
:1004500008E0686C50F0080068640120070001E0C3
:1004600002200700002085F840003800C0B2BDE837
:10047000F2832DE9FC4705000C001600002700F070
:10048000A3FA80462868D0F81890286810F1200A4E
:1004900095F84000012801D1022063E0012085F891
:1004A000400095F84100012855D100206864002CD7
:1004B0004AD0222085F8410028680069401CA863C2
:1004C00028680069401C68632C632868406930F024
:1004D000406050F08060296848612868C0F8189032
:1004E000A86B002815D0009643460122062128005B
:1004F00000F044F907003800C0B2002809D1286B89
:10050000411C29639AF800100170A86B401EA86373
:10051000E6E73800C0B2002812D100964346012217
:100520000221280000F02AF907003800C0B2002894
:1005300006D102202968C860280000F0D1F8070021
:10054000012085F8410008E0686C50F008006864FC
:100550000120070001E002200700002085F840008C
:100560003800C0B2BDE8F6872DE9FC4704000D0055
:1005700016001F005FF0010800F026FA8146A86906
:100580000028E8690028286A002894F8400001281B
:1005900001D102204CE0012084F8400094F8410091
:1005A00001283ED100206064422084F84100009779
:1005B0004B4600222021200000F0E0F88246504601
:1005C000C0B200282FD13068216888627068216825
:1005D0004862B0682168C8622068016831F440014F
:1005E0003069014351F4800120680160F068A8621D
:1005F0005FF000622900200000F0E9F800974B4608
:1006000001220821200000F0B9F882465046C0B20D
:10061000002808D108202168C860012084F8410022
:1006200001E05FF0020A002084F840005046C0B2AA
:10063000BDE8F6872DE9F84304000D0016005FF0D1
:10064000010800F0C1F90700A8690028E86900283E
:10065000286A002894F84000012801D102203DE0DA
:10066000012084F8400094F8410001282FD1002097
:100670006064822084F84100A06C00903B0000225E
:100680002021200000F07AF881464846C0B20028B8
:100690001FD12068016831F00801706801432068AB
:1006A0000160706808280BD1306821680863102049
:1006B0002168C8602068006850F4801021680860D4
:1006C0005FF040622900200000F081F801E05FF057
:1006D0000209002084F840004846C0B2BDE8F28319
:1006E0007CB50400002500F06FF9060094F8410085
:1006F00080073ED5002084F840002068006840074D
:1007000011D52068006830F0040021680860E06BB3
:1007100000F07EF905002800C0B2002803D0606C0C
:1007200050F0040060642068006850F00200216806
:100730000860A06C0090330001220221200000F02C
:100740001DF805002800C0B200280BD10220216846
:10075000C860A06C0090330000222021200000F02F
:100760000DF805002800C0B2002802D1012084F84D
:1007700041002800C0B276BD816470472DE9F04188
:1007800005000E0090461F00069C286880683042D5
:1007900001D0012000E000204146C0B2C9B2884229
:1007A00012D014F1010FF0D0002C04D000F00CF99D
:1007B000C01B8442E9D2042085F84100686C50F0E7
:1007C00001006864012000E00020BDE8F08110B461
:1007D0004B6A002B06D0B2F1406F03D08B6A5B1ED0
:1007E000046823618B69002B79D00B6A002B3ED003
:1007F0008B680468E361CB69002B20D0CC6A0B6B5B
:100800001C434B6B1C434B6A1C434B6954EA8344A7
:100810000B691C430B6A1C43CB681C43CB691C430C
:100820008B691C430B681C43144303685C61B2F181
:10083000406F00F0C6804B680468A361C1E0CC6AD9
:100840000B6B1C434B6B1C434B6A1C434B6954EAB8
:1008500083440B691C430B6A1C43CB691C438B69A3
:100860001C430B681C43144303685C61A9E0CB691B
:10087000002B1ED0CC6A0B6B1C434B6B1C434B6A8A
:100880001C434B6954EA83440B6A1C43CB681C43EA
:10089000CB691C438B691C430B681C4314430368DE
:1008A0005C61B2F1406F00F08C804B680468A3611A
:1008B00087E0CC6A0B6B1C434B6B1C434B6A1C439D
:1008C0004B6954EA83440B6A1C43CB691C438B6914
:1008D0001C430B681C43144303685C6171E00B6AA2
:1008E000002B39D08B680468E361CB69002B1DD0E5
:1008F000CC6A0B6B1C434B6B1C434B6A1C434B6910
:1009000054EA83440B691C430B6A1C43CB681C43A9
:10091000CB691C438B691C43144303685C61B2F1CF
:10092000406F4ED04B680468A3614AE0CC6A0B6B01
:100930001C434B6B1C434B6A1C434B6954EA834476
:100940000B691C430B6A1C43CB691C438B691C431A
:10095000144303685C6134E0CB69002B1BD0CC6A84
:100960000B6B1C434B6B1C434B6A1C434B6954EA97
:1009700083440B6A1C43CB681C43CB691C438B69C3
:100980001C43144303685C61B2F1406F19D04B689B
:100990000468A36115E04B6A002B12D0CC6A0B6B84
:1009A0001C434B6B1C434B6A1C434B6954EA834406
:1009B0000B6A1C43CB691C438B691C4314430368BB
:1009C0005C6110BC7047704701480068704700BF09
:1009D000AC000020704730B4002513E050F8042B21
:1009E000D30744BFA9F101039A18091F042942F84B
:1009F000045BFAD213468C0744BF15809B1CC907C1
:100A000048BF1D7050F8041B0029E7D130BC704767
:100A100070B50400A56DFFF7D7FF060094F8350008
:100A2000022806D080206065002084F83400012070
:100A30003BE02068006830F01600216808602068FC
:100A4000406930F0800021684861206C002802D1A4
:100A5000A06C002805D02068006830F008002168EC
:100A6000086020680068400840002168086020682D
:100A70000068C0070ED5FFF7A7FF801B0628F6D336
:100A800020206065002084F83400032084F83500BD
:100A900003200AE03F21E06D8140A960002084F836
:100AA0003400012084F83500002070BD2DE9FC41A0
:100AB00004000026002C01D10120D8E12078C007D5
:100AC0006DD5DFF89405016811F00C01042909D0F7
:100AD000006810F00C0008280ED1DFF880050068CF
:100AE000400209D5DFF86C050068800357D56068BF
:100AF000002854D10120BAE16068B0F5803F06D1EA
:100B0000DFF85005016851F48031016026E060682B
:100B100000280AD1DFF83C05016831F4803101601A
:100B2000016831F48021016018E06068B0F5A02F01
:100B30000AD1DFF82005016851F4802101600168C5
:100B400051F48031016009E0DFF80805016831F4F3
:100B500080310160016831F4802101606068002803
:100B60000ED0FFF731FF0500DFF8E80400688003CE
:100B700015D4FFF729FF401B6528F5D3032076E144
:100B8000FFF722FF0500DFF8CC040068800306D5DC
:100B9000FFF71AFF401B6528F5D3032067E1207893
:100BA000800752D5DFF8B004016811F00C0F09D0AE
:100BB000006810F00C00082816D1DFF8A0040068C7
:100BC000400211D4DFF88C040168890704D5E1687C
:100BD000012901D001204AE1016831F0F8012269C0
:100BE00051EAC201016030E0E06800281AD0DFF865
:100BF0006474386850F001003860FFF7E5FE0500C6
:100C00003868800706D4FFF7DFFE401B0328F7D3C0
:100C100003202CE1386830F0F800216950EAC10067
:100C2000386012E0DFF82C74386840084000386003
:100C3000FFF7CAFE05003868800706D5FFF7C4FE37
:100C4000401B0328F7D3032011E12078000728D5A3
:100C50006069002812D0DFF80874386850F001008D
:100C60003860FFF7B1FE05003868800719D4FFF738
:100C7000ABFE401B0328F7D30320F8E0DFF8E07356
:100C80003868400840003860FFF79EFE050038686D
:100C9000800706D5FFF798FE401B0328F7D30320F3
:100CA000E5E02078400740F18780DFF8C0733868BE
:100CB000C0000AD4386850F080503860386810F0AE
:100CC00080500090009801200600DFF8A483D8F837
:100CD0000000C00513D4D8F8000050F48070C8F8A4
:100CE0000000FFF771FE0500D8F80000C00506D42B
:100CF000FFF76AFE401B6528F6D30320B7E0A06823
:100D0000012806D1DFF86C03016851F00101016090
:100D100025E0A06800280AD1DFF8580301684908D7
:100D200049000160016831F00401016017E0A0682A
:100D300005280AD1DFF83C03016851F00401016085
:100D4000016851F00101016009E0DFF82803016842
:100D5000490849000160016831F004010160A068A0
:100D6000002810D0FFF730FE0500DFF80803006808
:100D7000800719D4FFF728FE401B41F289318842D1
:100D8000F3D3032073E0FFF71FFE0500DFF8E40252
:100D90000068800708D5FFF717FE401B41F2893134
:100DA0008842F3D3032062E03000C0B2012803D1AF
:100DB000386830F080503860A069002856D0DFF8DD
:100DC0009802006810F00C0008284DD0A069022895
:100DD00037D1DFF88072386830F080703860FFF704
:100DE000F3FD80463868800107D5FFF7EDFDB0EBD5
:100DF00008000328F6D3032039E0E169206A0143A3
:100E0000606A51EA8011A06A4008401E51EA004120
:100E1000E06A51EA006151F00051DFF840020160E0
:100E2000386850F080703860FFF7CEFD05003868F4
:100E300080011BD4FFF7C8FD401B0328F7D3032014
:100E400015E0DFF81072386830F080703860FFF716
:100E5000BBFD05003868800108D5FFF7B5FD401BD4
:100E60000328F7D3032002E0012000E00020BDE8C2
:100E7000F6812DE9F04104000D000026002C01D17F
:100E800001209FE0DFF8F071386810F00F00A842F1
:100E90000BD238680009000128433860386810F028
:100EA0000F00A84201D001208CE02078800719D5DE
:100EB0002078400705D5DFF8A001016851F4E05122
:100EC00001602078000705D5DFF88C01016851F436
:100ED00060410160DFF880110A6832F0F002A0681A
:100EE00002430A602078C00737D56068012806D120
:100EF000DFF860010068800311D4012062E06068BF
:100F0000022806D1DFF84C010068800107D40120D7
:100F100058E050480068800701D4012052E0DFF813
:100F20003881D8F800108908890060680143C8F842
:100F30000010FFF749FD0600D8F8000010F00C0083
:100F40006168B0EB810F08D0FFF73EFD801B41F2D6
:100F500089318842F0D3032034E0386810F00F0064
:100F600085420BD238680009000128433860386890
:100F700010F00F00A84201D0012023E020784007A4
:100F800006D535490A6832F4E052E06802430A6047
:100F90002078000707D53048016831F460412269A4
:100FA00051EAC201016000F00FF834492A4A126880
:100FB000C2F30312895CC8402B4908600F2000F07F
:100FC00061F80020BDE8F0812DE9F0410024002502
:100FD000002600272048006810F00C00002804D0EC
:100FE000042804D0082804D031E01E4830E024480A
:100FF0002EE0DFF86880D8F8000010F03F00040011
:10100000D8F8000040020CD5D8F80000C0F38810D2
:101010001B49A1FB00012200002300F059F8050044
:101020000BE0D8F80000C0F388100E49A1FB0001C6
:101030002200002300F04CF80500D8F80000C0F3AF
:101040000140401C40000600B5FBF6F000E00548FA
:10105000BDE8F08100380240083802400438024000
:10106000743802400024F40004000020403802409C
:101070000070004070380240003C0240E41E00084E
:1010800040787D0110B504004FF47A700D4909785D
:10109000B0FBF1F00C490968B1FBF0F000F0B0F9D9
:1010A000002801D001200CE0102C09D200222100E0
:1010B0005FF0FF3000F08FF904480460002000E08A
:1010C000012010BD080000200400002000000020C6
:1010D000BBBBE1B1B2F5803F80F07E80022A1ED911
:1010E0008C46B1FBF2F102FB11C31B0443EA10432F
:1010F000B3FBF2FC02FB1C3380B240EA0343B3FBB8
:10110000F2F002FB103240EA0C4000237047022A42
:1011100005D98446B0FBF2F002FB10C270474AB119
:1011200005D100F0010249085FEA30007047002253
:101130000023704700F078B90B0002000021002066
:101140007047904271EB030CF6D3B3F5803F2FD27A
:10115000F0B5B3FA83F7B1FA81F4A7F10F0E3D1B96
:101160005340CEF1200602FA0EF2F3415340B5F19E
:101170000F0746D80F3C2C444140C4F12006A04044
:10118000F1414140B1FBF3F603FB1611A2FB06450A
:10119000001BA94102D2761E8018594180EA010243
:1011A00021FA0EF362FA0EF200215A403046F0BDE9
:1011B00030B4B1FBF3FC03FB1C11A2FB0C45001B7C
:1011C000A94103D2ACF1010C8018594130BC024650
:1011D0000B46604600217047B2F1807F65D3F0B5C1
:1011E000B2FA82F7B1FA81F4C7F10F063D1B22FA79
:1011F00006F307F1110EF24120355A40B5F10F0701
:10120000B8D94140C4F12006A040F1414140B1FBB2
:10121000F3FC03FB1C11A2FB0C45001BA94103D2EC
:10122000BCF1010C801859410F2F12D30F3FC90395
:1012300041EA5041B1FBF3F603FB1611A2FB064550
:10124000D4EBC030A94102D2761E8018594146EA3B
:10125000CC3C07B34140C7F12006B840F1414140C2
:10126000B1FBF3F603FB1611A2FB0645001BA941D7
:1012700002D2761E8018594180EA010221FA0EF34B
:10128000C7F1200462FA0EF20CFA07F05A402CFA69
:1012900004F13043F0BD80EA010221FA0EF300218F
:1012A00062FA0EF260465A40F0BD8C46B1FBF2F194
:1012B00002FB11C31B0243EA1063B3FBF2FC02FB07
:1012C0001C331B024CEA002043EA1063B3FBF2FC20
:1012D00002FB1C331B024CEA002043EA1063B3FB01
:1012E000F2FC02FB1C331B024CEA002043EA1063B1
:1012F000B3FBF2FC02FB1C324CEA002000237047D7
:1013000010B410F00703DFF8044122684FF6FF0124
:101310000A40DFF8FC1051EA03210A43226010BCA6
:101320007047DFF8E8000068C0F30220704710B48F
:10133000020052B2002A05D40A01364B040064B2FE
:101340001A5508E00A01344B040064B214F00F048B
:10135000234403F8042C10BC704770B4030013F04E
:101360000704D4F10700052801D3042001E0D4F1DB
:101370000700251D072D01D2002500E0E51E0126EE
:1013800016FA00F0401E0140A94016FA05F56D1E40
:101390002A401143080070BC704710B50400601E5D
:1013A000B0F1807F01D301200EE0601E1B49086070
:1013B0000F215FF0FF30FFF7BAFF002018490860E7
:1013C000072018490860002010BD10B50400200057
:1013D000FFF796FF10BD2DE9F04104000D00160047
:1013E0000027FFF79EFF8046320029004046FFF7A6
:1013F000B4FF0100200040B2FFF799FFBDE8F08183
:1014000010B504002000FFF7C8FF10BD0CED00E090
:101410000000FA0500E400E018ED00E014E000E050
:1014200018E000E010E000E07047000010B5CC4C80
:10143000CC4820602000FEF731FF002801D00120B9
:1014400055E000F095F9C8480021C1610021016212
:1014500000214162002141610021C162002101633C
:10146000002141634FF40051C160C0480021016177
:101470000121C160102181605FF480014161012080
:1014800060600420A0601020E0608020B0FA80F04E
:10149000401E20614FF4A06060610020A061002028
:1014A000E061002020622000FEF78EFE002801D0BF
:1014B00001201CE0200000F01BF8002801D00120D2
:1014C00015E0200000F0ACF8002801D001200EE06B
:1014D000200000F04DF8002801D0012007E0200096
:1014E00000F028F8002801D0012000E0002010BD05
:1014F00070B504009C4D4FF48070A8616620286090
:101500000020686241F28836320029002000FEF790
:10151000E7FE002801D001200BE09920286032006E
:1015200029002000FEF7DCFE002801D0012000E0A9
:10153000002070BD1CB504008B494FF440708861D9
:10154000EB2008604FF44060C8615FF04070486273
:101550000A20486100200190002000906A46200087
:10156000FFF768F8002801D0012000E0002016BD38
:1015700030B58FB004004FF4807007908520019043
:1015800000200890002009905FF080700A900020F1
:10159000069001200B9000200C9000200D90002060
:1015A0000E9041F288352A0001A92000FEF798FE2E
:1015B000002801D0012031E02A0069462000FEF712
:1015C00058FF002801D0012028E0200000F09EF8FC
:1015D000002801D0012021E0812001909DF8001019
:1015E00011F00F010A225FF07060B0FA80F08240C3
:1015F00011438DF800102A0001A92000FEF770FEAB
:10160000002801D0012009E02A0069462000FEF7E9
:10161000BDFE002801D0012000E000200FB030BD49
:10162000F0B595B004004FF4807007900020099049
:101630000020069000200C9000200D9000200E90BD
:1016400010201190002013905FF48000149065200A
:101650000190002008905FF080750A9501200B90A2
:101660003F4E41F288373A0001A93000FEF738FEBC
:10167000002801D0012047E03A0069463000FEF71B
:10168000F8FE002801D001203EE006200190002055
:101690000A903A0001A93000FEF722FE002801D08E
:1016A000012031E002200F900220109001201290C2
:1016B000052001900A953B000FAA01A93000FEF712
:1016C00053FF002801D001201EE06120019001207D
:1016D0000B909DF8000010F03F0050F040008DF896
:1016E00000003A0001A93000FEF7FAFD002801D001
:1016F000012009E03A0069463000FEF747FE002865
:1017000001D0012000E0002015B0F0BD70B504004C
:10171000154D4FF44070A8610620286000206862D3
:1017200041F28836320029002000FEF7D9FD00285A
:1017300001D0012013E00D4A022010600220506009
:10174000052028605FF040706862330029002000A7
:10175000FEF70AFF002801D0012000E0002070BD44
:101760000C000020001000A0580000209000002075
:1017700010B586B03648016851F00201016000687A
:1017800010F00200059005983248016851F00201FE
:101790000160016831F0020101602F48016851F0D9
:1017A00002010160016811F00201059105990168CB
:1017B00051F008010160016811F0080105910599D7
:1017C000016851F010010160006810F010000590F0
:1017D0000598402000900A200490022001900120EA
:1017E0000290022003901D4C6946200000F03CF856
:1017F00004200090092004900020029069462000F7
:1018000000F032F84FF40060009009200490144C6E
:101810006946200000F028F84FF48050009009201D
:1018200004906946200000F01FF804200090092071
:10183000049069460B4800F017F84FF400500090F0
:10184000092004906946200000F00EF806B010BD93
:101850003838024018380240303802400004024054
:10186000000C0240001002402DE9F8410022002344
:10187000002400260025102D80F00B81012717FA87
:1018800005F213000A681A4014009C4240F0FF80E1
:101890004A68022A02D04A68122A1FD12A00D208B6
:1018A00000EB8202D2F820C05FF00F0E15F00702A5
:1018B000D2B292001EFA02FE3CEA0E0CD1F810E001
:1018C00015F00702D2B292001EFA02FE5EEA0C0C7C
:1018D00066462A00D20800EB82021662D0F800C0E9
:1018E0005FF0030E2A00D2B252001EFA02F23CEA66
:1018F000020C91F8048018F003082A00D2B25200BA
:1019000018FA02F858EA0C0CC0F800C04A68012A1C
:1019100008D04A68022A05D04A68112A02D04A68CB
:10192000122A1BD186682A00D2B252001EFA02F295
:101930009643D1F80C802A00D2B2520018FA02F86D
:1019400058EA060686604268AF40BA434F68C7F35C
:101950000017AF403A439446C0F804C0C6682A0056
:10196000D2B252001EFA02FE36EA0E068F682A0034
:10197000D2B2520097403E43C6604A68D20040F15E
:101980008680DFF81421176857F4804717601268C3
:1019900012F480420092009ADFF800C12A009208F7
:1019A0005CF822705FF00F0E15F00302D2B29200C5
:1019B0001EFA02FE37EA0E07DFF8E420904201D15A
:1019C000002631E0DFF8DC20904201D101262BE037
:1019D000DFF8D420904201D1022625E0DFF8CC20A8
:1019E000904201D103261FE0DFF8C420904201D1CC
:1019F000042619E02F4A904201D1052614E02E4A10
:101A0000904201D106260FE02C4A904201D10726D0
:101A10000AE02B4A904201D1082605E0294A90426B
:101A200001D1092600E00A26F6B215F00302D2B26F
:101A30009200964037432A0092084CF82270224EBA
:101A40003268A243D1F804C05FEACC3C00D52243FF
:101A500032601E4F3E68A643D1F804C05FEA8C3C5A
:101A600000D526433E601A4F3A68A243D1F804C01D
:101A70005FEACC2C00D522433A60164F3E68A6435D
:101A8000D1F804C05FEA8C2C00D526433E606D1C63
:101A9000F1E6BDE8F1810000443802400838014019
:101AA000000002400004024000080240000C024016
:101AB000001002400014024000180240001C0240C6
:101AC0000020024000240240003C0140043C014050
:101AD000083C01400C3C0140BFF34F8FBFF36F8FB8
:101AE000002049490860BFF34F8FBFF36F8F47480D
:101AF000016851F400310160BFF34F8FBFF36F8F66
:101B00007047BFF34F8FBFF36F8F4048016831F4C8
:101B10000031016000203C490860BFF34F8FBFF3E4
:101B20006F8F704710B4002039490860BFF34F8FA2
:101B300038480168C1F34E32C1F3C900030043F6CF
:101B4000E07010EA421050EA8370334C20601800B5
:101B5000431E0028F3D11000421E0028ECD1BFF331
:101B60004F8F2A48046854F480340460BFF34F8FC9
:101B7000BFF36F8F10BC704710B400202449086079
:101B8000BFF34F8F2148016831F480310160BFF30A
:101B90004F8F20480168C1F34E32C1F3C9000300E2
:101BA00043F6E07010EA421050EA83701B4C20604C
:101BB0001800431E0028F3D11000421E0028ECD16B
:101BC000BFF34F8FBFF36F8F10BC704780B500F02D
:101BD00072F800F07DF800F030F800F027F80028E7
:101BE00001D000F029F800F06CF800200C490860E2
:101BF0000C480D49096801605FF01041096881F3E4
:101C0000088800688047FEE750EF00E014ED00E030
:101C100084ED00E080ED00E060EF00E074EF00E0B4
:101C200010E000E0A80000200400009010B500249F
:101C3000FFF7FCFB204310BDFEE730B591B0002458
:101C4000012005905FF48030069002200B905FF435
:101C500080000C9019200D904FF4D8700E90022047
:101C60000F900820109005A8FEF720FF050028001F
:101C7000C0B2002800D0FEE700F03EF804002000CB
:101C8000C0B2002800D0FEE70F2000900220019093
:101C9000002002904FF4A05003904FF48050049025
:101CA00006216846FFF7E5F80100C9B2002900D017
:101CB000FEE711B030BD80B5FFF70EFFFFF732FF32
:101CC00001BD80B5FFF71DFFFFF756FF01BD000006
:101CD00080B50748016851F4807101600320FFF767
:101CE00074FB0F20FFF7CEF900F004F8002002BDCE
:101CF000003C0240704700007CB500241B4801688E
:101D000051F080510160006810F080500090009800
:101D1000154E306850F480303060FEF755FE0500F7
:101D2000104C2068C00308D4FEF74EFE401B40F262
:101D3000E9318842F4D3032013E0306850F40030D6
:101D40003060FEF741FE06002068800308D4FEF7ED
:101D50003BFE801B40F2E9318842F5D3032000E0CE
:101D6000002076BD04700040007000404038024002
:101D70000F48016851F4700101600E49086850F085
:101D80000100086000200C4A10600A680B480240FD
:101D90000A600B480B4A1060086830F48020086025
:101DA0000020094908605FF000600849086070473A
:101DB00088ED00E00038024008380240FFFFF6FEE0
:101DC00010300024043802400C38024008ED00E0D6
:101DD00030B450F8041B79B10268436802440830FB
:101DE000DC0744BFA9F10104E31852F8045B43F88F
:101DF000045B091FF9D1ECE730BC704710B5074907
:101E000079441831064C7C44163404E00A68081DF5
:101E1000114488470146A142F8D110BD2C000000B2
:101E20004C0000004EF68851CEF20001086840F4E4
:101E300070000860BFF34F8FBFF36F8F4FF00070DB
:101E4000E1EE100A704700008FEBFFFFA4000000D6
:101E50000C0000200000000079FFFFFF0C000000D4
:101E6000B0000000000000200000000000F00DF8AD
:101E7000002801D0FFF7C2FFAFF300800020AFF3CE
:101E80000080FFF7A3FE00F002F80120704700F089
:101E900001B800000746384600F002F8FBE70000F2
:101EA00080B5AFF30080024A11001820ABBEFBE7FB
:101EB0002600020003480168034A1278891801606D
:101EC000704700BFAC000020080000207047FEE70C
:101ED000FEE7FEE7FEE770477047704780B5FFF703
:101EE000E9FF01BD00000000000000000102030442
:101EF000060708090148804701480047711D00088E
:101F0000051F0008AFF30080FFF78CFFFFF7AEFF5F
:101F1000100000000024F40001000000FFF7FEBFE5
:101F2000FFF7FEBFFFF7FEBFFFF7FEBFFFF7FEBFE5
:101F3000FFF7FEBFFFF7FEBFFFF7FEBFFFF7FEBFD5
:101F4000FFF7FEBFFFF7FEBFFFF7FEBFFFF7FEBFC5
:101F5000FFF7FEBFFFF7FEBFFFF7FEBFFFF7FEBFB5
:101F6000FFF7FEBFFFF7FEBFFFF7FEBFFFF7FEBFA5
:101F7000FFF7FEBFFFF7FEBFFFF7FEBFFFF7FEBF95
:101F8000FFF7FEBFFFF7FEBFFFF7FEBFFFF7FEBF85
:101F9000FFF7FEBFFFF7FEBFFFF7FEBFFFF7FEBF75
:101FA000FFF7FEBFFFF7FEBFFFF7FEBFFFF7FEBF65
:101FB000FFF7FEBFFFF7FEBFFFF7FEBFFFF7FEBF55
:101FC000FFF7FEBFFFF7FEBFFFF7FEBFFFF7FEBF45
:101FD000FFF7FEBFFFF7FEBFFFF7FEBFFFF7FEBF35
:101FE000FFF7FEBFFFF7FEBFFFF7FEBFFFF7FEBF25
:101FF000FFF7FEBFFFF7FEBFFFF7FEBFFFF7FEBF15
:10200000FFF7FEBFFFF7FEBFFFF7FEBFFFF7FEBF04
:10201000FFF7FEBFFFF7FEBFFFF7FEBFFFF7FEBFF4
:10202000FFF7FEBFFFF7FEBFFFF7FEBFFFF7FEBFE4
:10203000FFF7FEBFFFF7FEBFFFF7FEBFFFF7FEBFD4
:10204000FFF7FEBFFFF7FEBFFFF7FEBFFFF7FEBFC4
:10205000FFF7FEBFFFF7FEBFFFF7FEBFFFF7FEBFB4
:10206000FFF7FEBFFFF7FEBFFFF7FEBFFFF7FEBFA4
:10207000FFF7FEBFFFF7FEBFFFF7FEBFFFF7FEBF94
:10208000FFF7FEBFFFF7FEBFFFF7FEBFFFF7FEBF84
:10209000FFF7FEBFFFF7FEBFFFF7FEBFFFF7FEBF74
:0420A000FFF7FEBF89
:0200000490006A
:100000000000052029880090B7290090B9290090A8
:10001000BB290090BD290090BF290090000000007E
:10002000000000000000000000000000417C009083
:10003000C129009000000000E17C0090457D009007
:10004000798800907988009079880090798800906C
:10005000798800907988009079880090798800905C
:10006000798800907988009079880090798800904C
:10007000798800907988009079880090798800903C
:10008000798800907988009079880090798800902C
:10009000798800907988009079880090798800901C
:1000A000798800907988009079880090798800900C
:1000B00079880090798800907988009079880090FC
:1000C00079880090798800907988009079880090EC
:1000D00079880090798800907988009079880090DC
:1000E00079880090798800907988009079880090CC
:1000F00079880090798800907988009079880090BC
:1001000079880090798800907988009079880090AB
:100110007988009079880090C529009079880090AE
:10012000798800907988009079880090798800908B
:10013000798800907988009079880090798800907B
:10014000798800907988009079880090798800906B
:10015000798800907988009079880090798800905B
:10016000798800907988009079880090798800904B
:10017000798800907988009079880090798800903B
:10018000798800907988009079880090798800902B
:10019000798800907988009079880090798800901B
:1001A000D129009079880090DD290090798800900D
:1001B00079880090798800907988009079880090FB
:0801C000798800907988009015
:1001D00010B5054C237833B9044B13B10448AFF381
:1001E00000800123237010BD2401002000000000C6
:1001F00098E1019008B5034B1BB103490348AFF3E5
:10020000008008BD000000002801002098E1019056
:1002100053B94AB9002908BF00281CBF4FF0FF316D
:100220004FF0FF3000F072B9ADF1080C6DE904CE6B
:1002300000F006F8DDF804E0DDE9022304B07047C1
:100240002DE9F047089E04468846002B4BD18A4290
:10025000154667D9B2FA82F24AB1C2F1200701FA13
:1002600002F320FA07F7954047EA030894404FEA63
:10027000154E230CB8FBFEF71FFA85FC0EFB178802
:1002800043EA084307FB0CF1994209D9EB1807F13F
:10029000FF3080F01B81994240F21881023F2B44CD
:1002A0005B1AA4B2B3FBFEF00EFB103344EA034426
:1002B00000FB0CFCA44509D92C1900F1FF3380F098
:1002C0000781A44540F2048102382C4440EA0740EB
:1002D000A4EB0C0400271EB1D4400023C6E9004360
:1002E0003946BDE8F0878B4209D9002E00F0EB803B
:1002F0000027C6E9000138463946BDE8F087B3FA61
:1003000083F7002F47D18B4202D3824200F2FA805A
:10031000841A61EB030301209846002EE0D0C6E961
:100320000048DDE702B9FFDEB2FA82F2002A40F0AF
:100330008F80491B4FEA154E1FFA85F80127B1FB44
:10034000FEFC230C0EFB1C1143EA014308FB0CF1DD
:10035000994207D9EB180CF1FF3002D2994200F212
:10036000CD808446591AA3B2B1FBFEF00EFB1014E7
:1003700043EA044408FB00F8A04507D92C1900F112
:10038000FF3302D2A04500F2B6801846A4EB080461
:1003900040EA0C409FE7C7F1200CBB4022FA0CFE5C
:1003A0004EEA030E01FA07F420FA0CF521FA0CF3D9
:1003B0004FEA1E482543B3FBF8F92C0C08FB193310
:1003C0001FFA8EFA44EA034309FB0AF49C4202FA3C
:1003D00007F200FA07F10BD91EEB030309F1FF3016
:1003E00080F087809C4240F28480A9F10209734426
:1003F0001B1BADB2B3FBF8F008FB103345EA034416
:1004000000FB0AFAA24508D91EEB040400F1FF33F1
:100410006BD2A24569D90238744440EA0940A0FB76
:100420000289A4EB0A044C45C2464B4654D351D032
:10043000002E69D0B1EB0A0564EB030404FA0CFC4E
:10044000FD40FC404CEA0505C6E90054002747E79B
:10045000C2F1200320FA03F7954001FA02F021FAD5
:1004600003F34FEA154E3843010CB3FBFEF71FFAB6
:1004700085F80EFB173341EA034107FB08F38B4273
:1004800004FA02F407D9691807F1FF3C2FD28B4216
:100490002DD9023F2944CB1A81B2B3FBFEF00EFBEB
:1004A000103341EA034100FB08F38B4207D9691876
:1004B00000F1FF3C17D28B4215D902382944C91AE2
:1004C00040EA07473BE73746304609E70746E7E695
:1004D0001846FBE64145ABD2B8EB020A69EB0E02C7
:1004E00001381346A4E76046E9E7184695E76746F2
:1004F000D1E781467CE702382C4447E7ACF1020C97
:100500002B442FE7384608E73746E9E6704700BF37
:1005100001F0FF01102A2BDB10F0070F08D010F8B4
:10052000013B013A8B422DD010F0070F42B3F6D1B8
:10053000F0B441EA012141EA014122F007047FF0D1
:1005400000070023F0E80256083C85EA010586EA28
:10055000010685FA47F5A3FA87F586FA47F6A5FA64
:1005600087F68EB9EED1F0BC01F0FF0102F0070270
:1005700032B110F8013B013A83EA010313B1F8D11B
:100580000020704701387047002D06BF35460338FC
:10059000073815F0010F07D1013015F4807F02BF35
:1005A000013015F4C03F0130F0BC0138704700BF86
:1005B0007047704770477047704700F0D2B810B569
:1005C000044641F624611CF0FDFD204610BD0000EC
:1005D00010B5044600F058F9034B00222046236072
:1005E00004F5F1531A6010BD00E2019000F5F153DB
:1005F00010B51C688C420AD000F19804196020469E
:1006000008F04EFA2046BDE810400DF0FBBC10BDCE
:10061000704704387047704710B5044610211CF02D
:10062000D1FD204610BDA0F10400F5E7012180684E
:1006300000F028B8C068FFF7D9BFA0F10400FFF7A9
:10064000F9BF00000022C1608260044A10B502F1C7
:10065000080424320460426010BD00BF2CE2019007
:100660000022C0E90022027270474168142291FB07
:10067000F2F302FB131323B9037A13B1036803B136
:10068000FEE7704701727047704700F5967308687F
:10069000496803C37047704710B504464FF4AC7106
:1006A0001CF090FD204610BD10B50446D0F8540152
:1006B000FFF7DBFF2046BDE810400CF0D5BB10B5BE
:1006C0000446D0F83C0158B10368DB68984738B15C
:1006D000D4F83C0103689B6898470023C4F83C3178
:1006E00010BD000010B5044600F02AFA014B204668
:1006F000236010BD64E20190002070478180704744
:10070000C1807047018170474181704770477047D1
:10071000704770477047C388D21A8388C91A036824
:1007200012B209B210B45DF8044B1B6D18474FF6B6
:10073000FF7383814FF0FF3303621368C36110605E
:1007400070477047704790F825201AB190F8242020
:1007500002B11860704741727047407A7047704725
:100760007047704710B5044608211CF02BFD204649
:1007700010BD10B504464FF4F1511CF023FD204686
:1007800010BD0000094A026000228280C2800281FE
:1007900042818281C28102824282C26180F8242029
:1007A000C0E90522012280F825207047CC0902907B
:1007B00070B5036804461546DB6A984723682946E6
:1007C00020461B6BBDE8704018470000044B1B68B7
:1007D00093F876200AB1D86C00B99868704700BFCA
:1007E000703D01204FF6FF7238B500230281104A98
:1007F000044643600260C0E90333FFF7E7FF036884
:100800001B6A98470B4BB0FA80F51B686D09D86CD2
:1008100028B103681B6A9847002808BF01252DB935
:10082000054B2F21054A06481CF0D8FC204638BD50
:1008300014020290703D0120B0E2019020E401908A
:100840000EE301900C4B2DE9F0411B6805460E4666
:1008500017462BB9094B3521094A0A481CF0BEFC42
:10086000FFF7B4FF0368324629469C6A3B46A4461C
:10087000BDE8F041604700BF703D01206AE3019090
:1008800059E40190ADE301902DE9F04F044687B0A3
:1008900000250DF089FF2746814BE563294647F87F
:1008A000403B2623384604F16C091A4602931CF09B
:1008B0000AFD3846FFF766FF4FF0FF3B029B0DF144
:1008C0001808784A4FF6FF7A294684F866B0226401
:1008D00048461A46A56628F808AD04F19806039321
:1008E0001CF0F1FC4846FFF74DFF6F4A4146484671
:1008F000E266A4F892A084F894A00AF09AFE30462A
:1009000008F00AF904F5CC73ADF810A0184602936C
:10091000FFF768FF654AC4F8AC514146C4F8982116
:10092000C4F8B051C4F8B451C4F8BC51A4F8C051D3
:100930000298C4F8B8A109F063FE039B84F8A1B142
:1009400004F5E27B1A46294658461CF0BCFC584682
:10095000FFF718FF564BC4F8F45104F50070C4F8C3
:10096000C4314FF4E151534B84F8FC51C4F8EC31DD
:100970004FF47F0384F8FD51C4F8F831A4F8F0A1D6
:100980000AF0CAFE2A4629463846FFF711FF3846C4
:100990004FF4F071FFF7B6FE38464FF48871FFF759
:1009A000B3FE2A4629462846FFF74CFF2A46A06692
:1009B00029464846FFF7FCFE0B2341464846ADF862
:1009C00010300AF036FE304659229421FFF7F0FE2F
:1009D0005E232A46294600933046B82308F033F8B0
:1009E00040F6FF73009529461A46304608F084F910
:1009F0005C223046114607F0CFFF3046522107F007
:100A0000DFFF3046102107F0E5FF5A2230466FF035
:100A1000590108F061F830465A2107F0F9FF0C231C
:100A200041463046ADF8103008F00EFA0D2341462D
:100A30000298ADF8103009F0E3FD0299304607F056
:100A4000E4FF30463C2108F02BF85846CA22C22168
:100A5000FFF7AEFEFF2211461046FFF7F3FE154BDF
:100A6000A4F8F8514146ADF81450251DC4F8F4011E
:100A7000584604930AF09DFD3946284608F0E8FAE6
:100A80004946284608F0E4FA3146284608F0E0FADC
:100A90002846594608F0DCFA204607B0BDE8F08F3A
:100AA000F4E301900406029068060290700102903F
:100AB0005C050290A8E20190704770474160704762
:100AC00070470123037270477047704710B4C468C1
:100AD000034641686210E4079B6801EB020048BFCF
:100AE0008A585DF8044B48BFD358184743682BB168
:100AF00083682BB9C06800F0010070471846704742
:100B00000120704710B504460C211CF05BFB204609
:100B100010BD10B504464FF4AC711CF053FB2046D9
:100B200010BD10B5044610211CF04CFB204610BD32
:100B300010B50CF0C1FA0368BDE810401B6B1847F4
:100B4000F8B5044617460E460CF020FB144B002562
:100B5000C4F854611C602946124B134E2360134B9A
:100B60003068C4F83851C4F83C51C4F84031C4F876
:100B70004451C4F84851C4F84C51C4F8507103684A
:100B80009B689847284600F0A9FA336893F87620C6
:100B90000AB1D86C00B9986813F0D5FD2046F8BDAD
:100BA000DC3D0120D8E40190703D0120C0E40190BB
:100BB000064BC0F84401C0F848310023C0F84C315E
:100BC00000F5A073C0F83C31704700BF110D0090D4
:100BD0002DE9F04707469068994688460368154610
:100BE000DDF820A01B6A984741F62363984205D898
:100BF000414BA721414A42481CF0F0FA686803685B
:100C00001B6A98470F2803D83E4BA8213B4AF2E7BE
:100C1000E86803681B6A98470B2803D83A4BA92158
:100C2000364AE8E70CF048FA0CF094FAD9F80000DC
:100C300010B10368DB689847D9F8000010B1036869
:100C40001B689847386810B103685B699847D8F803
:100C5000000010B103685B689847386810B10368FA
:100C60001B689847D8F8000010B103689B68984744
:100C7000E868002103685B6A9847044620B10023B6
:100C800043600372214B0360A868002103685B6A1C
:100C90009847064608B1FFF79BFC68680021036887
:100CA0005B6A9847054610B13146FFF7CBFCC9F89F
:100CB0000040C8F800503E60E5B12B1DCAF8003076
:100CC0003046C5F808A03368F563DB6898472B68A1
:100CD00028461B689847214630460DF0E0FE236801
:100CE00020461B699847236820465B699847284639
:100CF000BDE8F0872B46E1E738E501904DE701902C
:100D0000C6E5019007E60190AAE601901CE5019076
:100D100007B5D0F8543100F59C710093044BD0F81E
:100D200050210448FFF754FF03B05DF804FB00BFF7
:100D3000D03D0120CC3D012013B5002249B102ABCA
:100D4000019203F8052D0268946801AAA04702B039
:100D500010BD0846FBE7408970478089704780884E
:100D6000704783798088184480B27047C07900F05A
:100D70007F007047C079C0097047006A70477047AC
:100D80008B888069DB0A0A6850F82300104470479A
:100D900010B5C2B1137BB3B1547BD27A240204F4F0
:100DA000E0641443C26998B202EB840213888B4258
:100DB00002D192F9020010BD05D80138043280B288
:100DC0000028F3D1F7E70020F5E710B50446242109
:100DD0001CF0F8F9204610BD30B589B00446BDF8C6
:100DE00050500695BDF84C5005959DF8405004951F
:100DF0009DF83C5003959DF8385002959DF834506D
:100E000001959DF8305000950DF0BCF9054B20463A
:100E10002360119BA361129BE361159B236209B0C0
:100E200030BD00BF68E8019030B5154D8BB02C780F
:100E3000BFF35B8F14F001041FD128461CF09AF910
:100E4000D8B13F2301220F4907930F4B0394069318
:100E50000E4B00940E48CDE904430423CDE9084429
:100E6000CDE901320A23FFF7B7FF28461CF08EF9BF
:100E7000084A094906481CF0A0F905480BB030BDE6
:100E8000400100205403109044200290B4E80190E7
:100E900044010020000000207F0D009030B5154D6A
:100EA0008BB02C78BFF35B8F14F001041FD1284660
:100EB0001CF060F9D8B13F2301220F4907930F4B73
:100EC000039406930E4B00940E48CDE9044304238B
:100ED000CDE90844CDE901322823FFF77DFF2846FC
:100EE0001CF054F9084A094906481CF066F90548FF
:100EF0000BB030BD680100207C03109040200290B0
:100F0000B8E801906C010020000000207F0D0090E7
:100F100030B5164D8BB02C78BFF35B8F14F0010405
:100F200020D128461CF026F9E0B13F2301221049C8
:100F30000793104B039406930F4B00940F48CDE991
:100F400004430423CDE90844CDE901320A221423E5
:100F5000FFF742FF28461CF019F9094A09490748DA
:100F60001CF02BF905480BB030BD00BF90010020EC
:100F70008C03109048200290BCE80190940100205E
:100F8000000000207F0D0090704710B5044604213A
:100F90001CF018F9204610BD012908B508D003D36C
:100FA000022909D0002002E000F012F8006808BD14
:100FB00000F00EF84068FAE700F00AF88068F6E7FB
:100FC00000487047D4E8019018207047012070470E
:100FD00000487047B801002010B5054CFFF798FF96
:100FE0002060FFF75BFF6060FFF71EFFA06010BD91
:100FF000B8010020002070470EB403B503AB0021F8
:1010000053F8042B01930CF0F3FE02B05DF804EBEF
:1010100003B070470CB407B504AB53F8042B01932D
:101020000CF0E6FE03B05DF804EB02B07047000080
:1010300010B5C36B044673B3038E2BB9184BC02194
:10104000184A19481CF0CAF8C38D00EB43035B8BA8
:101050000BB30EF0ADFA238E012B03D8134BC52131
:10106000134AEEE7E28D40F63F10531C9BB2092B6A
:10107000194688BFA3F10A0104EB4101498B814263
:1010800009D10A2B04EB420228BF0023508B04EB4A
:101090004303588351832046BDE810400EF06CB9DD
:1010A000B4EA0190E1EB0190BDEA019001EB0190FF
:1010B0000FEB01900EF01AB910B586B002AC84E8BF
:1010C00006001A460AAB214605930193099B00933B
:1010D000089B0BF081FB06B010BD000038B5D8B9F5
:1010E000114B12481B681249BBB11A689C681A441C
:1010F0001C4402605A681A440A606CB10D4B00220D
:101100001A80FFF765FF0546FFF760FF0A4B1C607A
:101110000A4B1D600A4B188038BD0A4B03600A4B0E
:101120000B600A4B1C68E8E7C4010020C8010020DE
:10113000CC010020D0010020E03D0120E83D01204D
:10114000E43D012024041090180410902004109015
:10115000044B1B6853F82100034B1B6803EB400052
:10116000704700BFCC010020C8010020012380F897
:10117000741080F875307047002070470020704769
:10118000836B0BB10846184770474FF6FF707047E6
:10119000406803689B691847134A0023F0B5C2F8FA
:1011A0008430BFF34F8FD2F8803043F6E076C3F33C
:1011B000C904C3F34E33A5075B0103EA060C2846B6
:1011C00021464CEA0007013900F14040C2F8747230
:1011D0004F1CF6D1203B13F1200FEED1BFF34F8F00
:1011E000BFF36F8FF0BD00BF00ED00E0034B902216
:1011F00083F85A2383F85823704700BF00E100E0CA
:10120000094A0A49D3680A48C3F30A03013B9BB25F
:101210000B801169C1F30A01013901801364536B1A
:1012200043F001035363704700680140D40100207C
:10123000D2010020014B986A704700BF84680140CA
:10124000024B0122996243F8602C70478468014088
:10125000FFF7A2BF08B531B90A4B40F26B210A4A29
:101260000A481BF0BBFFC0E90F1200324364084973
:1012700018BF012200330A7018BF0123054A1370FA
:1012800008BD00BF8CEC019003ED0190C4EC01900F
:101290006E3D01206F3D012008B508F01FF8BDE844
:1012A0000840FFF779BF08F040B910B5044608F0D0
:1012B0007BFD23682046D3F89030BDE810401847E6
:1012C00090F877301BB1406803681B6818471846D0
:1012D0007047000030B590F8744090F83410104B0F
:1012E0008C421A780DD05AB90E4A0F4914880F480B
:1012F0000C8001880E4D11800122298004801A7013
:1013000030BD002AFCD00948074A0188084D1180E9
:10131000044A1488118000222C800480EFE700BF6B
:10132000683D0120643D01206A3D0120663D0120A9
:101330006C3D0120034B4FF080629A604FF0807249
:101340009A60704700E100E0084B4FF08062C3F8FC
:101350008820BFF34F8FBFF36F8F4FF08072C3F8B9
:101360008820BFF34F8FBFF36F8F704700E100E01D
:1013700070B5044608F090FA2368DD6C0BF09CFE13
:1013800001462046A84723682046044A1D6F4FF0B7
:1013900040410023AC46BDE87040604700FC03C0FC
:1013A000134B144A10B51B6C1188134C8B4213D18C
:1013B000124B198802F0E6F8226892F86630013381
:1013C00082F8663000F022FA206808F0EDFC002078
:1013D000BDE8104000F085BC02F0D4F8002000F019
:1013E00081FC20680368BDE810409B69184700BF76
:1013F00000680140D4010020703D0120D20100208E
:1014000003685B6C18470120704703689B6A1847A4
:101410000D4B82B01A6B42F400021A631A6B02F48D
:1014200000020192019A1A6942F400021A611A69D3
:1014300022F400021A61054B054A1A614FF08062DE
:10144000044B9A6002B07047003802407840012097
:101450006114009000E100E040F2EF1070470000DE
:10146000024B1B68586803685B691847703D012090
:1014700008B50B280BD8DFE800F01206100A0A0A9C
:101480000A0808080808012008BD0520FCE7054BEC
:101490006521054A05481BF0A1FE0020F4E7022063
:1014A000F2E700BF6BED019040EE019086ED0190F8
:1014B00008B50A2809D8DFE800F010060E08080869
:1014C000080606060600012008BD054B8621054AD0
:1014D00005481BF083FE0020F6E70220F4E700BF7A
:1014E0006BED01908CEE019086ED0190F8B50C4605
:1014F000487FFFF7BDFF0646A77F3846FFF7B8FFD6
:1015000005463846FFF7D4FF238AE28AD21A4F4BAA
:101510001A64218AE28A521A9A61218AA28A521A8C
:101520001A615863218A628A42EA01425A64E26877
:10153000DA636268DA602268207F402A77D024D894
:10154000042A3DD0202A72D046EA00603F4B40F486
:101550000030D861627F0B2A74D1A1680A1DDA625B
:10156000DA69498822F47F42013922F0100242F000
:10157000100242EA0122DA61DA6942F02002DA61FD
:10158000DA6992065AD500BFFAE7802A04D0B2F58C
:10159000807FD9D12E4A00E02E4A42EA0060D8610D
:1015A000A1690A02480102F47802C90000F47C40F3
:1015B000C9B202430A431A625D62E2685A6133E0CB
:1015C00046EA006040F40030D8615D62E2685A612A
:1015D000627F0B2A27D1A1681F480A1DDA620A78A8
:1015E0003AB1012A16D01D4BFC211D4A1D481BF0A3
:1015F000F5FDDA6949880240013942EA0122DA61DF
:10160000124BDA6942F02002DA61DA69910608D5F4
:1016100000BFFAE7DA6949880240013942F0100256
:10162000EBE710229A60094B0F4A1A60F8BD46EAB0
:101630000060064B40F40030D861BDE710229A608C
:101640000A4AF2E740F20122EFE700BF00B0024091
:10165000090002000A000200EF00FFFF51ED0190B7
:1016600000EE019086ED01900102020001020100EE
:1016700010B5887F0C46FFF71BFF254B5863218A66
:10168000628A42EA01425A64E268DA63E28A218AA3
:10169000521A1A642268082A20D1218AE28A521A30
:1016A0009A61218AE28A521A1A615862194A217F84
:1016B00042EA0162DA61A1690A02480102F4780291
:1016C000C90000F47C40C9B202430A431A62E268CE
:1016D0005A61E268DA60104A1A6010BD0022D861CF
:1016E0001A61A27FA1691AB99963094B0B4AF3E702
:1016F0000A02480102F47802C90000F47C40C9B231
:1017000002430A43217F42EA01629A63EDE700BF88
:1017100000B00240090001000102020001020300C2
:10172000054B4FF080620360044BC3F88820BFF381
:101730004F8FBFF36F8F7047B8ED019000E100E06D
:1017400010B50446FFF7ECFF4FF4426120461BF052
:1017500039FD204610BD000070B505460A4B0C301F
:1017600000262C46602268602E726E7244F8203B80
:10177000214608F07DFC05F54263A6612034A342B2
:10178000FBD1284670BD00BFB8ED019001210022B9
:1017900008B5084605F05CFF0A4B186028B90A4BEB
:1017A00025210A4A0A481BF019FD002204210120C4
:1017B00006F018F8074B186018B9074B2921034A9F
:1017C000F0E708BDDC010020D9EE01908DEF01901B
:1017D00022EF0190D80100204BEF0190024B4FF017
:1017E000FF31186805F08ABFDC010020014B186842
:1017F00005F0C0BFDC010020024B0021186805F095
:101800007DBF00BFDC010020FFF7F0BF00230348CD
:1018100003491A46006806F02BB800BFD801002023
:101820000400002013B50023074C01A91A462068C4
:1018300006F060F84FF0FF33002201A9206806F09F
:1018400059F802B010BD00BFD801002070477047A2
:101850007047012070470C2070470C2303FB0100E8
:10186000083070470C2303FB01000830704701204B
:10187000704741F62460704741F6246303FB010082
:101880000830704741F6246303FB010008307047BD
:10189000012070471020704700EB0110083070479E
:1018A00000EB0110083070470846FFF781B90000CF
:1018B000034B10B50446036007F062F8204610BDE4
:1018C0002CF0019010B50446FFF7F2FF14212046DA
:1018D0001BF078FC204610BD034B10B50446036096
:1018E00007F04EF8204610BDF8EF019010B5044601
:1018F000FFF7F2FF41F62C6120461BF063FC204607
:1019000010BD0000034B10B50446036007F038F823
:10191000204610BDC4EF019010B50446FFF7F2FF5A
:10192000182120461BF04EFC204610BD094B10B577
:101930000446036000F5F2501830FFF7B9FF04F1D8
:101940002C00FFF7C9FF04F11400FFF7DBFF20466E
:1019500010BD00BF60F0019010B50446FFF7E6FF30
:1019600041F6D07120461BF02DFC204610BD000032
:101970002DE9F341FFF724FB00240546FFF724FB84
:10198000234601462246284600940EF015F9264BC0
:10199000264A2046264D1A60FFF7A0FB25480EF088
:1019A0004DF82B78BFF35B8FDB0736D428461BF04E
:1019B000E1FB002831D0204C204F04F1140004F149
:1019C0002C0807F120061E4B6060C4F80880E76011
:1019D0002661236006F0D6FF1A4B4046636106F08D
:1019E000D1FF194B3846E36206F0CCFF174B07F1E5
:1019F00014003B60FEF734FE224607F11401304626
:101A0000FEF770FE3046FFF7D3F828461BF0BEFB0A
:101A10000F4A104920461BF0D0FB0F4802B0BDE82A
:101A2000F04100F02DB900BFEC3D0120542E002004
:101A3000E001002008000020E40100203C200020FC
:101A400060F00190C4EF0190F8EF01902CF001904C
:101A5000000000202D190090D82D0020014800F032
:101A6000B1B800BFD82D002010B5044604211BF0EA
:101A7000A9FB204610BD10B5044678211BF0A2FB3F
:101A8000204610BD10B504467C211BF09BFB204670
:101A900010BD0000F8B5364C364D374B2246374F57
:101AA000284637492B601BF088FB364E3846FFF737
:101AB00053FE2246344938461BF07FFB304611F076
:101AC000DFF92246314930461BF077FB2246304988
:101AD00030481BF072FB3048002301222F49C560BB
:101AE000038580F82A30C362038680F8483080F886
:101AF000492080F84A30436541664FF4F07180F820
:101B0000683080F8693080F86A3080F86B3080F88F
:101B10006C30036780F8753080F87630204DC0E96E
:101B20000176C0E90433C0E90633C0E90833C0E9EF
:101B30000E33C0E91033C0E9133380F8772080F802
:101B40007820184A80F834301060174A11804FF41A
:101B500088722A80154D2B70154D164B2980164919
:101B600003600A8022461549BDE8F8401BF025BBFA
:101B700000000020B42100207CF10190B821002059
:101B80004D180090582E0020211700904F180090FB
:101B9000890F009008000020D82D002001000001CE
:101BA000663D0120703D0120643D0120683D01201B
:101BB0006A3D012074F001906C3D012051180090A5
:101BC0007047000008B5036804469B6E9847236879
:101BD00020461B6E9847FFF725FE236820469B6D25
:101BE00098474FF48051074803F083F908210648CD
:101BF00003F07FF9FFF716FE236820469B6D984798
:101C0000F8E700BF0020024000280240FFF712BBA7
:101C1000FFF716BBF8B5FFF73FFB134A0023C2F8E6
:101C20008430BFF34F8FD2F8803043F6E076C3F3B1
:101C3000C904C3F34E33A5075B0103EA060C28462B
:101C400021464CEA0007013900F14040C2F87472A5
:101C50004F1CF6D1203B13F1200FEED1BFF34F8F75
:101C6000BFF36F8FF8BD00BF00ED00E0FFF7BEBA15
:101C7000FFF760BBFFF768BBFFF7C2BA07F028BBEE
:101C800038B5044600F02CF8074D2046FFF770FBEE
:101C90000023284684F84A3000F058F801232561D3
:101CA00084F86C3038BD00BFD02E002010B504463B
:101CB0000C211BF087FA204610BD000004480023C9
:101CC000044A43608360044B044903601BF075BA07
:101CD000D02E002000000020C0F10190C11B009018
:101CE000704770477047704730B58DB00D46144649
:101CF00000212C2201A81BF0E6FA01A806F0BAFB8D
:101D00009DF8040030B1BDF8063001202B60BDF80D
:101D1000103023600DB030BD08B54FF488714FF41A
:101D2000F07006F04FFB28B1034B1D21034A044815
:101D30001BF054FA08BD00BF28F101908CF101900E
:101D400049F101904068704741607047094A136843
:101D500043F080731360A2F54E42074B4C3A116872
:101D60000B431360A2F57B62136843F00103136019
:101D7000704700BFFCED00E055CEACC5521A02EB37
:101D80005302B2FBF3F07047014B1868704700BF75
:101D9000041000E010B5036804461B6931B1984790
:101DA000A26863689B1A1844606010BD9847A060E1
:101DB000FBE7000014490020D1F8883043F4700399
:101DC000C1F88830114B1A6842F001021A6098601D
:101DD0001A6822F0847222F480321A600C4A5A6027
:101DE0001A6822F480221A60D8609A6B42F00102CD
:101DF0009A634FF02042136823F0010313604FF001
:101E000010438B60704700BF00ED00E000380240D7
:101E100010300024044C08B52046082103F069F86E
:101E2000642005F0FBFBF7E70020024030B5B5B0B9
:101E300030220021012507A802241BF044FA1422B5
:101E4000002102A81BF03FFA8422002113A81BF0F6
:101E50003AFA02F05BFC274B4FF0190C07A81A6CFA
:101E600042F080521A641B6C03F080530093009B75
:101E7000214B1A6842F440421A601B6803F4404345
:101E80000193019B4FF48033CDE907534FF4800356
:101E9000CDE90D434FF4D873CDE91144CDE90FC31B
:101EA00001F020FC00B1FEE701F08CFB00B1FEE781
:101EB0000F2304904FF4A0500721CDE902344FF4D2
:101EC0008053CDE9050302A801F0EEFD00B1FEE765
:101ED00048231B9024901393642318930523CDE982
:101EE0001D5013A8CDE9194300F0C2FE00B1FEE772
:101EF00035B030BD003802400070004080B59CB065
:101F00001022002101260FA8AE4D1BF0DCF94FF086
:101F1000404402F083FD4FF0005CAB4B0FA81C2740
:101F2000ADF83C601295CDE910C302F099FD40F286
:101F300001130FA81296ADF83C30CDE9104702F01E
:101F40008FFD40F201230FA81094ADF83C304FF004
:101F500010449E4BCDE9113502F082FD40F2013371
:101F60000FA81296ADF83C30CDE9104702F078FD8D
:101F700040F201430FA81094ADF83C30944BCDE9EA
:101F8000113502F06DFD40F20153DFF874E20FA845
:101F9000ADF83C308F4B1094CDE911E302F060FDB9
:101FA000042002F04BFDBFF34F8FBFF36F8F8A4BBE
:101FB0000021C3F85012BFF34F8FBFF36F8F5A69E0
:101FC00042F400325A61BFF34F8FBFF36F8FC3F8F3
:101FD0008410BFF34F8FD3F8802043F6E076C2F32E
:101FE000C904C2F34E32A507520102EA060C284684
:101FF000214640EA0C07013900F14040C3F8607205
:102000004F1CF6D1203A12F1200FEED1BFF34F8FC3
:102010005A6942F480325A61BFF34F8FBFF36F8F1A
:1020200000F0E2FC0024FFF701FF142200210FA8BA
:102030001BF049F9694B41F2080169481A6B012507
:1020400042F010021A631A6B02F010020192019A18
:102050001A6B42F002021A631A6B02F00202029239
:10206000029A1A6B42F040021A631A6B02F04002A5
:102070000392039A1A6B42F400721A631A6B02F409
:1020800000720492049A1A6B42F008021A631A6BE7
:1020900002F008020592059A1A6B42F480621A63F4
:1020A0001A6B02F480620692069A1A6B42F48072EE
:1020B0001A631A6B02F480720792079A1A6B42F045
:1020C00020021A631A6B02F020020892089A1A6B17
:1020D00042F004021A631A6B02F004020992099A90
:1020E0001A6B42F001021A631A6B02F001020A92A3
:1020F0000A9A1A6B42F080021A6300221B6B03F0EB
:1021000080030B930B9B02F0EFFE00220821354861
:1021100002F0EAFE41F208030FA93148CDE90F357C
:10212000CDE9114402F064FD08232E480FA9CDE942
:102130000F35CDE9114402F05BFD2B482B4B848019
:1021400003600562C0E9054401F036F800B1FEE71E
:10215000274C284BC4E90200C4E90030C4E90A0056
:10216000C4E90C00204600F079FC00B1FEE72946E6
:10217000204600F033FD00B1FEE71F4B04211F4A4B
:1021800040249860C3E900201022C3E90312802193
:102190001592C3E90541C3E90700C3E909000FA986
:1021A0001846CDE90F22CDE91122CDE9132201F025
:1021B00041FA00B1FEE706F0EDF806F09DF805469D
:1021C00000B3FEE701000101120000031600000346
:1021D000170000030000010100ED00E0003802409C
:1021E00000200240002802409C3E012000300240B6
:1021F0007840012000B00240B8400120400100A01A
:1022000013000003342201460FA8664C1BF05BF854
:10221000654B2826352740F2152C40F2352E2561D6
:102220002046A58684F83650C4E900350923C4E960
:1022300005630B23C4E9077340F21B13C4E909C308
:1022400040F21D13C4E90255C4E90BE301F094F810
:10225000024600B1FEE74FF4F0714FF488730F901F
:102260004FF480651A93ADF86C208DF86E20CDE99F
:1022700010100220CDE91230FF20CDE91402052014
:10228000CDE91821CDE916500FA9204601F051F9EA
:1022900000B1FEE7454B4FF4E13245491861586201
:1022A000C3E900120C22C3E90200C3E90520C3E917
:1022B0000700184602F0F9F900B1FEE700251C22DC
:1022C0000FA83C4C29460E95CDE90C551AF0FBFFA2
:1022D000394B2046A560A561C4E900354FF6FF7370
:1022E000C4E9033503F08EFA00B1FEE70C900CA9A7
:1022F0000E90204602F0DAFA024600B1FEE76023B3
:10230000119013900FA9CDE90F30204603F0CCFABD
:10231000054600B1FEE72046284C00F035FA1022B1
:1023200029460FA81AF0CFFF4FF44033244A012664
:102330002046A5602561A56184F82050E562E5602E
:10234000E66184F830506661C4E900231D4BA36246
:1023500002F0D6FD00B1FEE7CDE90F0611900FA9FE
:10236000204602F04DFF044600B1FEE703F0B9FB42
:1023700005F0C4F8144A2146144805F0F9F8144B46
:10238000144A21461860144805F0F2F8134B144A19
:1023900021461860134805F0EBF8134B186005F060
:1023A000C7F8FEE7003F012000680140F43F01202C
:1023B00000100140C03E012000040040A83F012061
:1023C000002201400100000F40F20190E75A009006
:1023D000F03F0120F8F10190151E0090983E012079
:1023E0001CF20190692400907440012008B509484E
:1023F00002F03EFE50B94FF47A71064802F0ACFE8E
:1024000020B90448BDE8084002F0F7BE4FF0FF30A5
:1024100008BD00BFA83F012084B000B589B00DF110
:10242000280C8CE80F0060461A9903F005FBBDF8F4
:102430006C300AA80D9303F0E5F960231A9A01A9FC
:102440000AA80193BDF8703002930023039305930B
:1024500003F02AFA1A990AA803F0ECFA09B05DF819
:1024600004EB04B07047000080B50E4E90B040F60B
:10247000FF780027FFF7BAFF0B4D80B26C460C9730
:10248000CDE90D800FCD0FC40FCD0FC495E80F001F
:1024900084E80F0096E80F00FFF7BEFF012005F06B
:1024A000BDF8E7E7C03E0120D03E01200268034BA3
:1024B0009A4201D100F0AEBA704700BF0010004050
:1024C00010B5014688B00022362002F053FA3620BB
:1024D00002F082FA144B01A903A81A6C134C42F0C3
:1024E00010021A641B6C03F010030293029B01F0AC
:1024F0009DFB01F07BFB0E4B4000236040F2E73375
:10250000E3600C4BB0FBF3F0013800236060204621
:102510002361A36003F05CF920B9204603F024F89E
:1025200008B010BD0120FBE700380240EC4001205C
:102530000010004040420F000D4B82B00F216FF0A1
:1025400001001A6C42F080521A641A6C02F0805238
:102550000092009A5A6C42F480425A6400225B6CEA
:1025600003F480430193019B02B002F003BA00BF61
:102570000038024010B588B004461422002103A898
:102580001AF0A1FE2268104B9A421BD103F58B333F
:1025900003A90E485A6C42F480625A645A6C02F4E1
:1025A00080620192019A1A6B42F001021A630122C1
:1025B0001B6B03F001030293029B0323CDE903236A
:1025C00002F016FB08B010BD0022014000000240DE
:1025D000026882B0084B9A420BD1D3F8302803F539
:1025E000006342F480521A631B6B03F4805301931F
:1025F000019B02B0704700BF0030024007B50E4B90
:1026000002689A4215D1A3F5F04305215A201A6BAE
:1026100042F400021A6300221B6B03F400030193CF
:10262000019B02F0A7F95A2003B05DF804EB02F019
:10263000D3B903B05DF804FB00B0024070B58CB0B4
:1026400004461422002107A81AF03DFE22683E4BE2
:102650009A4277D103F5504302240E2607A95A6CFB
:1026600000253A4842F080625A645A6C02F0806257
:102670000192019A1A6B42F010021A631A6B02F06F
:1026800010020292029A1A6B42F400721A631A6BD9
:1026900002F400720392039A1A6B42F480621A6386
:1026A0001A6B02F480620492049A1A6B42F04002A0
:1026B0001A631A6B02F040020592059A1A6B42F4F3
:1026C00080721A631B6B03F480730693069B1023BE
:1026D000CDE907340A940B9602F08AFA4EF6FF739E
:1026E00007A91B480B96CDE90734CDE9095402F040
:1026F0007FFAF72307A917480B96CDE90734CDE9F0
:10270000095402F075FA4FF4805307A91248CDE935
:1027100007340923CDE909540B9302F069FA4FF409
:10272000464307A90D480B96CDE90734CDE9095476
:1027300002F05EFA58202A46052102F01BF95820C3
:1027400002F04AF90CB070BD006801400010024070
:1027500000240240002802400018024000200240ED
:10276000026882B0074B9A420AD103F50D331A6C06
:1027700042F002021A641B6C03F002030193019BF6
:1027800002B070470004004010B586B00446142221
:10279000002101A81AF097FD22680C4B9A4213D130
:1027A00003F50D3301A90A481A6B42F002021A63BD
:1027B00010221B6B03F002030093009B0223CDE960
:1027C0000123059302F014FA06B010BD0004004086
:1027D0000004024070B588B004461422002103A80A
:1027E0001AF071FD22681D4B9A4234D103F59433DF
:1027F0000226032507245A6C03A9194842F0100247
:102800005A645A6C02F010020092009A1A6B42F05D
:1028100002021A631A6B02F002020192019A1A6B09
:1028200042F001021A631B6B03F001030293029B47
:102830008023CDE90654CDE9033602F0D9F94FF4EF
:10284000007303A907480794CDE903360023CDE9B7
:10285000053502F0CDF908B070BD00BF0010014091
:102860000004024000000240F0B587B014220021AD
:1028700001A81AF028FD2A4B1E68002E4ED1012215
:10288000022703250C241A6001A9264B26489A6BBF
:1028900042F001029A639B6B03F001030093009BDB
:1028A0004FF68373CDE90454CDE9013702F0A0F966
:1028B00048F2331301A91D480594CDE90137CDE94C
:1028C000036502F095F94CF2037301A918480594C9
:1028D000CDE90137CDE9036502F08AF94FF63F03F0
:1028E00001A914480594CDE90137CDE9036502F04B
:1028F0007FF9242301A910480594CDE90137CDE9DA
:10290000036502F075F904230C480DEB03010594EF
:10291000CDE90137CDE9036502F06AF907B0F0BDF2
:10292000E02E002000380240001002400018024053
:10293000000C024000140240001C0240000802404B
:1029400008B5144B1A6822BB01224FF68371124856
:102950001A60124A936B23F00103936302F02AFA80
:1029600048F233110E4802F025FA4CF203710D487B
:1029700002F020FA4FF63F010B4802F01BFA242127
:102980000A4802F017FA04210948BDE8084002F09D
:1029900011BA08BDDC2E00200010024000380240B1
:1029A00000180240000C024000140240001C0240CB
:1029B0000008024070477047FEE7FEE7FEE7FEE7CB
:1029C00070470000014802F0E9BD00BFEC40012063
:1029D000014800F04DBD00BF003F0120014800F05C
:1029E0006DB800BF7840012008B5094B03201A6874
:1029F00042F400721A601A6842F480721A6001F0A0
:102A0000A7FF0020FFF75CFDFFF796FD002008BD43
:102A1000003C0240034A044B11681B780B441360CE
:102A2000704700BF2C41012010000020014B1868A6
:102A3000704700BF2C41012038B50446FFF7F6FF70
:102A40000546631C1EBF044B1B78E418FFF7EEFF1E
:102A5000401BA042FAD338BD1000002010B5044638
:102A600040B390F8393003F0FF021BB980F83820EA
:102A7000FFF7C4FD226802236168002084F8393022
:102A8000136823F440330B4313602268A168536B2F
:102A900023F007030B4353632268E168136C23F4AC
:102AA0007F5323F03F030B4313640123E06384F857
:102AB000393010BD0120FCE77047704770B50368DE
:102AC00004465E681D68F20715D5E90513D51A6836
:102AD00022F480721A600122C36B43F00103C363C6
:102AE00003689A60042380F83930002380F8383076
:102AF000436903B19847B20617D5AB0415D52268D0
:102B0000136823F400531360202223689A60E36B58
:102B100043F00203E363042384F83930002384F88C
:102B2000383063690BB120469847300717D529051F
:102B300015D52268136823F4006313600822236804
:102B40009A60E36B43F00403E363042384F83930B1
:102B5000002384F8383063690BB120469847720728
:102B60000CD56B050AD522682046136823F48063D0
:102B70001360042223689A60FFF79EFFB00715D503
:102B8000A90513D52268136823F400731360022289
:102B900023689A60E36BE363012384F839300023F0
:102BA00084F8383023690BB120469847F20614D5D3
:102BB000EB0412D522682046136823F48053136077
:102BC000102223689A60E36BE363012384F83930B1
:102BD000002384F83830FFF770FF70BD70B590F8AF
:102BE0003830012B4FF002032CD0012280F839300D
:102BF0001E4E80F838200A018418D4E9075345EAAC
:102C00000343093D012D656A96BF05F07F4543EA00
:102C100005632B430568B9B9696A31400B436B62A0
:102C2000036882699A61C369093B012B04D8436A2E
:102C3000026823F07F439362012380F83930002338
:102C400080F83830184670BDE96931400B43EB61BC
:102C5000831801689A690A61DB69093B012BEBD88B
:102C6000636A026823F07F431362E5E7F0FFFC002C
:102C70002DE9F7430668044616F001060CD0B34B65
:102C80009A6822F400029A609A68416B0A439A603B
:102C9000466BB6FA86F67609256815F4002511D03C
:102CA000AA4AE16BD2F88C3023F440130B43C2F8EC
:102CB0008C30E56BB5F5801F13BFB5FA85F500259F
:102CC00001266D092368D80210D5A04A216CD2F8DC
:102CD0008C3023F440030B43C2F88C30236CB3F5E3
:102CE000800F00F09B81002B08BF0125236813F0A3
:102CF000807F18BF0126990632D5944B944F1A6CE9
:102D000042F080521A641B6C03F080530193019BC4
:102D10003B6843F480733B60FFF788FE80463B6866
:102D2000DA0540F17D81894F3B6F13F4407340F029
:102D30008281226B02F44073B3F5407F834B40F0F5
:102D4000A081996822F0704221F4F81122F44072B7
:102D50000A439A60226B196FC2F30B020A431A6787
:102D60002368D9060CD5794BD3F88C2022F08072D9
:102D7000C3F88C20D3F88C20A16B0A43C3F88C20B5
:102D800023685A0408D5714A616ED2F8903023F452
:102D900040330B43C2F8903023681B0408D56B4ABC
:102DA000A16ED2F8903023F440230B43C2F8903048
:102DB0002368DF0308D5654AE16ED2F8903023F42A
:102DC00040130B43C2F890302368980308D55F4A3C
:102DD000216FD2F8903023F440030B43C2F89030B7
:102DE0002368590608D5594A616CD2F8903023F00F
:102DF00003030B43C2F8903023681A0608D5534AE0
:102E0000A16CD2F8903023F00C030B43C2F8903041
:102E10002368DB0508D54D4AE16CD2F8903023F0E9
:102E200030030B43C2F8903023689F0508D5474A0A
:102E3000216DD2F8903023F0C0030B43C2F89030DC
:102E40002368580508D5414A616DD2F8903023F4C3
:102E500040730B43C2F890302368190508D53B4AEC
:102E6000A16DD2F8903023F440630B43C2F8903048
:102E70002368DA0408D5354AE16DD2F8903023F49E
:102E800040530B43C2F8903023689B0408D52F4A67
:102E9000216ED2F8903023F440430B43C2F89030B7
:102EA00023685F0208D5294AA16FD2F8903023F039
:102EB00080630B43C2F89030236898020DD5234AF3
:102EC000E16FD2F8903023F000630B43C2F89030EA
:102ED000E36FB3F1006F08BF0125236813F0080FFB
:102EE00018BF0125590308D5184A616FD2F89030F0
:102EF00023F040730B43C2F8903023681A0209D5BF
:102F0000124AD4F88010D2F8903023F080530B434B
:102F1000C2F89030012E00F0B8802368B3F1007F32
:102F200000F0B380012D77D1084D2B6823F080533A
:102F30002B60FFF77BFD06462B689F0000F12C817C
:102F400023681D0306D5E26B42B103E0003802405E
:102F500000700040D8021DD5236CDBB99549D1F82B
:102F60008830D1F8882003F4403302F0E042134364
:102F7000626943EA8213A26943EA0263C1F88830B6
:102F8000D1F88C30A26A23F4F853013A43EA0223C1
:102F9000C1F88C302368990215D5E36FB3F1006F47
:102FA00011D1844AD2F88830D2F8881003F07063C7
:102FB00001F0E0410B43616943EA8113216A43EA6E
:102FC0000143C2F8883023681A0719D57949D1F826
:102FD0008820D1F8883002F0706203F44033134344
:102FE000626943EA8213E26943EA0273C1F88830F6
:102FF000D1F88C30E26A23F440331343C1F88C30AB
:103000006C4C236843F080532360FFF70FFD0546A7
:1030100023689B0040F1C780002009E0012665E697
:10302000FFF704FDA0EB080064287FF678AE0320CC
:1030300003B0BDE8F083226B02F4407293423FF488
:1030400078AE3B6F3A6F23F4407342F480323A67B4
:103050003A6F22F480323A673B673B6FDB077FF5BC
:1030600068AEFFF7E3FC41F2883980463B6F980772
:103070003FF55FAEFFF7DAFCA0EB08004845F5D955
:10308000D5E79A6822F4F81263E64A4E336823F0D3
:1030900080633360FFF7CAFC074633681B0175D4B1
:1030A0002368DF0712D5636B83B9D6F88430D6F86E
:1030B000842003F4403302F070621343626843EAF1
:1030C0008213A26843EA0273C6F8843023681E03A1
:1030D00003D5E26BB2F5801F05D0D8021ED5236C54
:1030E000B3F5800F1AD1334AD2F88430D2F8841065
:1030F00003F4403301F0E0410B43616843EA81137C
:10310000E16843EA0163C2F88430D2F88C10636A44
:1031100021F01F01013B0B43C2F88C302368D90119
:1031200011D5244AD2F88430D2F8841003F07063A9
:1031300001F0E0410B43616843EA8113216943EAEE
:103140000143C2F8843023689A010DD5236962686F
:103150001B0443EA8213E26843EA0263A26843EA7B
:103160000273144AC2F88430124E336843F080630D
:103170003360FFF75BFC074633681B013FF5D2AEB7
:10318000FFF754FCC01B6428F6D950E7FFF74EFC4C
:10319000C01B642881D94AE7FFF748FC801B6428DC
:1031A0007FF6CAAE43E7FFF741FC401B64287FF679
:1031B0002FAF3CE70038024010B5044608B90120A3
:1031C00010BD437F03F0FF0213B90277FFF700FA47
:1031D000022363772379FBB92368144A5A61226872
:1031E000936823F01803936062792368E2B94FF083
:1031F000FF321A61002022686169936823F060033E
:103200000B4393602268A169936823F080030B430A
:10321000936001236377D3E7D4E90212204602F0DA
:103220003DFC0028E0D0CAE72269E2E7B71DC104EF
:10323000F0B5D20105684C68EB688432C3F30B43E8
:1032400015441C446B6803F470436B6005680E689A
:10325000EB6815440136C3F30B43334443EA04439C
:103260006B600568CC68EB68C3F30A031C44AB18B9
:103270009D6805F470459D6005688B68EE6815448F
:103280000133C6F30A06334443EA0443AB60002526
:10329000036813441C6924F007041C6103680C696B
:1032A00013441C61046891F83260144491F8317041
:1032B000D1F818C0A369A561046891F830301444AE
:1032C00043EA0C6343EA072343EA0643A361036826
:1032D00013445C6924F0FF045C6103684C69134487
:1032E0005C6104681444E36923F4E06323F007039A
:1032F000E3610368D1E9074613443443DC610368A2
:1033000013449C6A9D6203684C6A13449C620B6977
:1033100063B3012B2CD09C1E022C2BD9072B14BF7E
:103320000124022403681344DD6A05F0E025DD6210
:1033300003689D18D1E900639B1B8E6A6343744345
:10334000033343EA0443EB6204681444236B23F41D
:10335000FF6323F0070323630368C96A13441963F7
:1033600001688B5843F001038B50F0BD0424D9E76A
:103370000324D7E70224D5E738B50446002870D0E7
:1033800090F8A13003F0FF021BB980F8A020FFF7EE
:1033900055F92268022384F8A130936923F0704321
:1033A00093612268D4E9013091690343E0680343E3
:1033B000206903430B43936121682B4A8B681340B8
:1033C0008B60216860698B6843EA0043A06903430E
:1033D0008B602168CB681340CB602168E069CB68C3
:1033E00043EA0043206A0343CB6021680B69134022
:1033F0000B6121680B69606A43EA0043A06A0343DA
:103400000B6121684B691A404A612268E16A53697D
:1034100043EA0143216B0B435361216894F8360062
:10342000CA6A94F8355002F07F42CA62226894F862
:103430003430D16A0B4343EA052343EA00430020BA
:10344000D3622268536B43F0060353632268936987
:1034500043F0010393610123C4F8A40084F8A13070
:1034600038BD0120FCE700BF00F800F0704770474E
:1034700070B5036804469E6B5D6B720715D56907CE
:1034800013D55A6B22F004025A6304220368DA63EC
:10349000D0F8A43043F00103C0F8A430002380F832
:1034A000A12080F8A030FFF7E1FFB20717D5AB07E6
:1034B00015D522682046536B23F002035363022282
:1034C0002368DA63D4F8A4301343C4F8A430042387
:1034D00084F8A130002384F8A030FFF7C7FFF0077D
:1034E00011D5E9070FD522682046536B23F001035D
:1034F000536301232268D36384F8A130002384F846
:10350000A030FDF74DFF320712D52B0710D52268EA
:103510002046536B23F00803536308222368DA63C1
:10352000012384F8A130002384F8A030FFF79FFF27
:1035300070BDF8B590F8A03006468C469646012B33
:103540004FF002001DD0342401270D4686F8A1005B
:1035500004FB026486F8A07038340FCD0FC40FCD81
:103560000FC40FCD0FC42B683046724661462360EE
:10357000FFF75EFE336800205F6286F8A17086F870
:10358000A000F8BD10B590F8A030012B4FF0020359
:1035900014D00468012280F8A13080F8A020636B69
:1035A00023F001036363064B196401684B6B1343FB
:1035B0004B63002380F8A12080F8A030184610BD8E
:1035C00000680140194B37B51A6C194C42F0805213
:1035D0001A641B6C03F080530193019B236843F42E
:1035E00080332360FFF722FA05466368DA030CD5BF
:1035F000236843F400332360FFF718FA0C4C0546A8
:1036000063689B030AD5002006E0FFF70FFA401B12
:10361000B0F57A7FE9D9032003B030BDFFF706FA91
:10362000401BB0F57A7FEBD9F5E700BF00380240C8
:103630000070004038B50D460446C8B190F82C30F3
:1036400003F0FF021BB980F82D20FFF70DF90223CC
:10365000211D206884F82C3001F028FA6268294680
:10366000206801F059FA0123002084F82C3038BD7D
:103670000120FCE710B50446FFF762F9D4E9000128
:1036800001F08EFA002084F82C0084F82D0010BD83
:1036900038B5044690F82C000D46C0B202280DD073
:1036A0000223206884F82C3001F089FA2B6800206E
:1036B000022B0CBF0523012384F82C3038BD10B534
:1036C000044690F82C00C0B2022809D002232068DA
:1036D00084F82C3001F086FA0123002084F82C3085
:1036E00010BD00002DE9F341044608B9012041E076
:1036F0000368D80710D4236899075CD42368190796
:1037000000F1A18023685A0700F1C280A069002857
:1037100040F0288100202DE0904B9A6802F00C02C6
:10372000042A07D09A6802F00C02082A0AD15B68C2
:103730005A0207D5894B1B689B03DCD56368002BB5
:10374000D9D1D3E76268854BB2F5803F15D11A68AD
:1037500042F480321A60636803B3FFF767F97F4D64
:1037600006462B689F03C6D4FFF760F9801B6428C8
:10377000F7D9032002B0BDE8F0813AB91A6822F403
:1037800080321A601A6822F48022E3E7B2F5A02F93
:103790001A68F4D142F480221A60D8E7FFF746F99C
:1037A0006E4D06462B689803A5D5FFF73FF9801BA1
:1037B0006428F7D9DDE7694B9A6812F00C0F07D03F
:1037C0009A6802F00C02082A11D15B6859020ED4E3
:1037D000624B1A68920702D5E268012A86D11A68FC
:1037E000216922F0F80242EAC1021A6086E7E36822
:1037F0005A4DBBB12B6843F001032B60FFF716F95C
:1038000006462B689F0707D52B68226923F0F8032B
:1038100043EAC2032B6071E7FFF708F9801B022817
:10382000EFD9A6E72B6823F001032B60FFF7FEF822
:1038300006462B6898077FF561AFFFF7F7F8801B06
:103840000228F6D995E76369444D83B16B6F43F065
:1038500001036B67FFF7EAF806466B6F9B073FF5BE
:1038600051AFFFF7E3F8801B0228F6D981E76B6FB1
:1038700023F001036B67FFF7D9F806466B6F9F07CC
:103880007FF540AFFFF7D2F8801B0228F6D970E72A
:10389000324B1A6CD0002AD41A6C012642F08052A6
:1038A0001A641B6C03F080530193019B2C4D2B6811
:1038B000D9051ED5A268294B012A2AD11A6F42F0D8
:1038C00001021A67A368002B39D0FFF7AFF8234D28
:1038D000074641F288382B6F9B072AD5002E3FF40C
:1038E00015AF1E4A136C23F0805313640EE70026B5
:1038F000DCE72B6843F480732B60FFF797F80746EB
:103900002B68DA05D6D4FFF791F8C01B6428F7D9E5
:103910002FE73AB91A6F22F001021A671A6F22F0E4
:103920000402CEE7052A1A6FF5D142F004021A67A5
:10393000C4E7FFF77BF8C01B4045CCD919E7FFF778
:1039400075F8064D074641F288382B6F9807C5D5A4
:10395000FFF76CF8C01B4045F7D90AE70038024072
:1039600000700040384DAB6803F00C03082B41D0C9
:103970002B68022823F080732B602ED1FFF756F8B6
:1039800006462B68990122D4D4E907321343626AB0
:1039900043F0005343EA8213E26A43EA0263A26AF5
:1039A000294C5208013A43EA02436B602B6843F00A
:1039B00080732B60FFF73AF8054623689A013FF5BC
:1039C000A9AEFFF733F8401B0228F6D9D1E6FFF77E
:1039D0002DF8801B0228D4D9CBE6FFF727F8044640
:1039E0002B689B017FF596AEFFF720F8001B02289D
:1039F000F6D9BEE601286B683FF4BCAE03F4800242
:103A0000E1698A427FF472AE03F03F02216A8A4282
:103A10007FF46CAE47F6C072616A1A40B2EB811F48
:103A20007FF464AEA26A03F440315208013AB1EB6C
